S028000042524434313034415F4546523332424731335F727463635F616C61726D5F7365742E7333373A
S113000000000120B9010000E5010000E501000045
S1130010E5010000E5010000E5010000E501000044
S1130020E5010000E5010000E5010000E501000034
S1130030E5010000E4010000E5010000E501000025
S1130040E5010000E5010000E5010000E501000014
S1130050E5010000E5010000E5010000E501000004
S1130060E5010000E5010000E5010000E5010000F4
S113007049050000E5010000E5010000E50100007C
S1130080E5010000E5010000E5010000E5010000D4
S1130090E5010000E5010000E5010000E5010000C4
S11300A0E5010000E5010000E5010000E5010000B4
S11300B0E5010000E5010000E50100001127000052
S11300C0E5010000E5010000E5010000E501000094
S11300D0E5010000E5010000E5010000E501000084
S11300E0E5010000E5010000E5010000E501000074
S11300F0E5010000E5010000E501000010B5054C34
S1130100237833B9044B13B10448AFF300800123BF
S1130110237010BD8400002000000000B04C0000DB
S113012008B5034B1BB103490348AFF3008008BD76
S11301300000000088000020B04C0000A3F5803AC5
S1130140704700BF174B002B08BF134B9D46FFF7AA
S1130150F5FF00218B460F461348144A121A02F089
S1130160FFFC0E4B002B00D098470D4B002B00D00A
S113017098470020002104000D000D48002802D0FB
S11301800C48AFF3008002F0C7FC2000290002F005
S113019031FC02F0ADFC00BF0000080000000000CC
S11301A0000000000000012084000020D400002092
S11301B00000000000000000064880470649074A86
S11301C0074B9A42BEBF51F8040B42F8040BF8E700
S11301D0FFF7B8FFDD020000BC4C00000000002067
S11301E084000020FEE700BF80B582B000AF00F0BD
S11301F025F878600A4BD3F808311B0AC3F30803C7
S11302003B603B6801337A68B2FBF3F37B60054AD9
S11302107B6813607B6818460837BD4680BD00BF05
S113022000400E400800002080B400AF024B184686
S1130230BD465DF8047B704700F0490280B483B08A
S113024000AF1C4BD3F8943003F00703023B032B9D
S11302501BD801A252F823F07902000071020000B9
S11302606902000081020000134B1B687B6010E0F0
S11302704FF400437B600CE0104B1B687B6008E08C
S11302800F4B1B685B087B6003E00D4B1B687B60B6
S113029000BF084BD3F800311B0A03F01F030133DE
S11302A07A68B2FBF3F318460C37BD465DF8047B5D
S11302B0704700BF00400E400400002000000020F2
S11302C00C00002080B400AF034B1B681846BD46E9
S11302D05DF8047B704700BF0000002080B400AFCD
S11302E0074B084A9A60064BD3F88830044A43F413
S11302F07003C2F8883000BFBD465DF8047B7047C8
S113030000ED00E00000000080B400AF4FF40043B3
S11303101846BD465DF8047B704780B400AF4FF4C7
S11303207A731846BD465DF8047B704780B400AF0D
S1130330034B1B681846BD465DF8047B704700BF3D
S11303400400002080B483B000AF78600023184616
S11303500C37BD465DF8047B704780B483B000AFB2
S11303607860FEE780B483B000AF786039603B68A2
S11303704FF400525A60002318460C37BD465DF80E
S1130380047B704780B483B000AF786001231846C3
S11303900C37BD465DF8047B704780B485B000AF70
S11303A0F860B9607A60002318461437BD465DF8DA
S11303B0047B704780B586B000AFF860B9607A609E
S11303C000237B610FE000F077F938613B69B3F1FA
S11303D0FF3F0ED0BB685A1CBA603A69D2B21A7099
S11303E07B6901337B617B685A1E7A60002BEAD1FA
S11303F000E000BF7B69002B02DC4FF0FF3300E01C
S11304007B6918461837BD4680BD80B586B000AFFD
S1130410F860B9607A6000237B6109E0BB685A1C0C
S1130420BA601B78184600F087F97B6901337B6159
S11304307A697B689A42F1DB7B6818461837BD46B7
S113044080BD000080B483B000AF0346FB7197F910
S11304500730002B0BDBFB7903F01F02074997F9E8
S113046007305B09012000FA02F241F8232000BFA3
S11304700C37BD465DF8047B704700BF00E100E027
S113048080B483B000AF0346FB7197F90730002BAB
S11304900CDBFB7903F01F02074997F907305B096E
S11304A0012000FA02F2603341F8232000BF0C3728
S11304B0BD465DF8047B704700E100E080B483B082
S11304C000AF786039607B683A689A6400BF0C3783
S11304D0BD465DF8047B704780B483B000AF78609C
S11304E039607B68DA6C3B68DB431A407B68DA640A
S11304F000BF0C37BD465DF8047B704780B483B001
S113050000AF786039607B68DA6C3B681A437B68BB
S1130510DA6400BF0C37BD465DF8047B7047000009
S113052080B500AF04210248FFF7D6FF00BF80BDAD
S11305300000014080B500AF04210248FFF7DEFF50
S113054000BF80BD0000014098B500AF144B1B698B
S113055003F08003002B20D0124B1B68072B1ADCFE
S1130560114B1C680E4801F067FF03461A460F4BF7
S11305701A550D4B1B6801330B4A1360094B1B685A
S11305800133084A1360084B1B68082B05D1064B3E
S113059000221A6001E0FFF7C3FF00BF98BD00BF4F
S11305A000000140A8000020A4000020AC000020AE
S11305B080B483B000AF78607B68002B03D0064B17
S11305C001221A7002E0044B00221A7000BF0C379B
S11305D0BD465DF8047B7047B4000020B0B588B018
S11305E000AF01212D4800F0A5FB01212C4800F0AB
S11305F0A1FB012304220021002001F049FC012376
S113060002220121002001F043FC264BFB61264B12
S11306103C461D460FCD0FC495E8070084E807004B
S1130620012304220521002001F032FC01211F488E
S113063000F080FB00233B703B461946F86901F04B
S113064031FEFB6903225A67FB699B6F23F4F8535D
S113065023F01F03FA69936704211248FFF72EFF62
S11306600C20FFF70DFF04210E48FFF747FF0C2075
S1130670FFF7E8FE0521F86901F0E8FD0C4B1B6863
S1130680986800230222002102F0A2FA094B0122F9
S11306901A7000BF2037BD46B0BD00BF4041050001
S11306A000350A000000014018490000003204002F
S11306B018000020B500002080B582B000AF4FF0D4
S11306C0FF337B60184B1B7883F00103DBB2002BF4
S11306D001D0FFF783FF01F04DFA3860134B1B681C
S11306E0002B18DD124B1B68124AD35CDBB27B6013
S11306F00F4B1B6801330E4A13600D4B1B68082B0C
S113070002D10B4B00221A60084B1B68013B074ABD
S11307101360FFF70FFF386801F03DFA7B68184655
S11307200837BD4680BD00BFB5000020A8000020EA
S1130730A0000020AC00002080B582B000AF0346CA
S1130740FB710F4B1B7883F00103DBB2002B01D04C
S1130750FFF744FF0B4B1B78002B06D0FB790A2BC9
S113076003D10D21084801F07BFEFB7919460648A8
S113077001F076FEFB7918460837BD4680BD00BF00
S1130780B5000020B40000200000014080B483B014
S113079000AF786001227B6802FA03F318460C3735
S11307A0BD465DF8047B704780B487B000AFF86045
S11307B0B9607A60FB6803F1424303F58013DA0001
S11307C0BB6813449B007B617B697A681A6000BF35
S11307D01C37BD465DF8047B704780B485B000AF1C
S11307E0786039607B6803F1424303F58013DA00D3
S11307F03B6813449B00FB60FB681B681846143776
S1130800BD465DF8047B704780B400AF064B1B689F
S113081003F04003002B01D1012300E0002318461C
S1130820BD465DF8047B70473C300E4080B500AF98
S1130830FFF7EAFF034683F00103DBB2002B08D184
S113084000BF12210448FFF7C8FF0346002BF8D16C
S113085000E000BF80BD00BF04300E4080B500AF93
S1130860FFF7E4FF034B5B681B0C03F00303DBB2ED
S1130870184680BD00300E4080B584B000AF78606B
S11308800123FB607B68124A934204D80023FB6077
S11308900023BB6008E07B680E4A934202D8012320
S11308A0BB6001E00223BB60FA6810210A48FFF72D
S11308B07BFF094BD3F8003123F08072BB681B0621
S11308C005491343C1F8003100BF1037BD4680BD50
S11308D00048E8010090D00300400E4080B483B08B
S11308E000AF054B1B687B607B6818460C37BD4620
S11308F05DF8047B704700BF1000002080B582B013
S113090000AFFFF79BFC7860064BD3F800311B0A5D
S113091003F01F0301337A6802FB03F31846083718
S1130920BD4680BD00400E4080B582B000AF0D488A
S113093000F074FC0346FB70FB78072B05D0092BF1
S113094007D1FFF77BFC786006E0FFF7C7FF78600C
S113095002E000237B6000BF7B6818460837BD4671
S113096080BD00BF06000E0080B584B000AF786083
S11309707B68002B1CD11B4800F050FC0346FB7223
S113098000BFFB7A013B072B23D801A252F823F0C6
S1130990B5090000D3090000D3090000C309000011
S11309A0D3090000D3090000BB090000CB090000F3
S11309B0002312E00023FB600EE0FFF78FFFF860D6
S11309C00AE0FFF77FFCF86006E0FFF797FFF860A6
S11309D002E00023FB6000BFFB6818461037BD46E9
S11309E080BD00BFB800320080B485B000AF78602D
S11309F039601E4B5B6803F04073FB600023BB60EF
S1130A0012E01B4ABB68DB0013441A793B68DBB273
S1130A109A4206D1164ABB6852F833307A689A4231
S1130A2006D9BB680133BB60BB68042BE9D900E07D
S1130A3000BFBB68052B02D10323FB6005E00C4A11
S1130A40BB68DB0013445B79FB60FB681B06FB603F
S1130A50064B5B6823F040720449FB6813434B6008
S1130A6000BF1437BD465DF8047B704700000E409C
S1130A703449000080B582B000AF0E4B1B6C002BD4
S1130A8014BF01230023FB710A4B41F671321A642F
S1130A90FFF7CAFB034600211846FFF7A5FFFB79C1
S1130AA0002B02D0034B00221A6400BF0837BD4656
S1130AB080BD00BF00000E4080B582B000AF3B1D7A
S1130AC0184601F013FB7B79012B02D83B79022BEA
S1130AD001D9012300E0002303F00103DBB218462F
S1130AE00837BD4680BD000080B584B000AF786093
S1130AF039600C4B1B6C002B14BF01230023FB73C8
S1130B00084B41F671321A6439687868FFF76CFF54
S1130B10FB7B002B02D0034B00221A6400BF10376A
S1130B20BD4680BD00000E4080B487B000AF786041
S1130B300F237B617B6803333B617B69FB60FA684D
S1130B403B69934228BF1346BB60BB681B07BB606D
S1130B50BB6818461C37BD465DF8047B704700002F
S1130B6080B400AF044B5B6A1B0903F0030318460F
S1130B70BD465DF8047B704700400E4080B483B0EE
S1130B8000AF7860074B5B6A23F030027B681B017F
S1130B90044913434B6200BF0C37BD465DF8047B28
S1130BA0704700BF00400E4090B585B000AF78603C
S1130BB00023BB607B683F4A93420BD07B683D4A6D
S1130BC0934209D87B683C4A934203D07B683B4AF2
S1130BD0934201E000BF00E000BF786800F01EFB14
S1130BE00346FB607B68334A93421AD07B68314AE0
S1130BF093421DD87B68304A934204D07B682F4AC5
S1130C00934207D014E02E4BD3F8803003F007034F
S1130C10FB600EE02A4BD3F8843003F00703FB603B
S1130C2007E0274BD3F8883003F00703FB6000E0AC
S1130C3000BFFB68052B34D801A252F823F000BF93
S1130C409D0C0000590C0000610C0000790C0000A0
S1130C50690C0000710C0000FFF756FBB86023E03C
S1130C60FFF764FBB8601FE0FFF757FBB8601BE0B9
S1130C70FFF74AFBB86017E0FFF7E0FA0446104BB1
S1130C80D3F800311B0E03F0010301331846FFF7BC
S1130C907DFD0346B4FBF3F3BB6005E00023BB60BA
S1130CA002E00023BB6000BFBB6818461437BD4692
S1130CB090BD00BF0500240002001E0003002000B8
S1130CC000400E4080B483B000AF78600A4BD3F884
S1130CD0443103F00103002B08D100BF064BD3F8C5
S1130CE040217B681340002BF8D100E000BF0C3793
S1130CF0BD465DF8047B704700400E4080B400AFF1
S1130D0000BFBD465DF8047B704780B400AF00BFF0
S1130D10BD465DF8047B704780B582B000AF786053
S1130D20786800F0AFF90346013318460837BD462A
S1130D3080BD000080B586B000AF78600B46FB70C4
S1130D4000233B617B681B0A03F00F03013B092B63
S1130D5044D801A252F823F0810D00008D0D00004B
S1130D60DD0D0000DD0D0000870D0000930D000077
S1130D709D0D0000DD0D0000A70D0000B30D000067
S1130D80184B7B6118E0184B7B6115E0174B7B61B6
S1130D9012E0174B7B6101233B610DE0154B7B6136
S1130DA010233B6108E0144B7B614FF480333B61BB
S1130DB002E0124B7B6100BF7B681B0B03F01F0337
S1130DC0FB603B69002B02D03869FFF77BFFFB789F
S1130DD01A46F9687869FFF7E7FC00E000BF1837A6
S1130DE0BD4680BD00400E40B0400E40C0400E40A5
S1130DF0E0400E40E8400E40F0400E4050410E40AE
S1130E0090B585B000AF78607B6803F47813B3F5D0
S1130E10781F00F01B81B3F5781F00F22281B3F52F
S1130E20481F00F00E81B3F5481F00F21A81B3F594
S1130E30401F00F0E580B3F5401F00F21281B3F5C6
S1130E40381F00F0B680B3F5381F00F20A81B3F5FD
S1130E50101F00F0E980B3F5101F00F20281B3F512
S1130E60001F00F0B580B3F5001F00F2FA80B3F55F
S1130E70F01F79D0B3F5F01F00F2F380B3F5D01F63
S1130E8000F0AB80B3F5D01F00F2EB80B3F5B01FD8
S1130E907DD0B3F5B01F00F2E480B3F5A01F68D095
S1130EA0B3F5A01F00F2DD80B3F5801F00F0C5800C
S1130EB0B3F5801F00F2D580B3F5602F00F0B98040
S1130EC0B3F5602F00F2CD80B3F5402F3DD0B3F5DC
S1130ED0402F00F2C680B3F5202F23D0B3F5202F86
S1130EE000F2BF80B3F5802F0DD0B3F5802F00F250
S1130EF0B880002B03D0B3F5003F17D0B1E0FFF763
S1130F009DF9F860B0E0FFF799F9F860594BD3F810
S1130F100C311B0AC3F308030133FA68B2FBF3F381
S1130F20FB60A1E0FFF78AF9F8609DE0FFF786F91E
S1130F30F860504BD3F808311B0AC3F3080301339C
S1130F40FA68B2FBF3F3FB608EE0FFF777F9F86021
S1130F50484BD3F814311B0A03F01F030133FA681A
S1130F60B2FBF3F3FB607FE04348FFF71DFEF8603C
S1130F707AE04248FFF718FEF8603E4BD3F8303170
S1130F8003F00303FA6822FA03F3FB606CE03A48C7
S1130F90FFF70AFEF860374BD3F8203103F00F0354
S1130FA01846FFF7F3FB0246FB68B3FBF2F3FB6062
S1130FB05AE03148FFF7F8FDF8602E4BD3F82031A2
S1130FC01B0903F00303FA6822FA03F3FB604BE006
S1130FD02B48FFF7E9FDF86046E02948FFF7E4FDF8
S1130FE0F860244BD3F828311B0903F00303184697
S1130FF0FFF7CCFB0246FB68B3FBF2F3FB6033E084
S11310001F48FFF7D1FDF8601A4BD3F828311B0AAB
S113101003F0030304331846FFF7B8FB0246FB68EA
S1131020B3FBF2F3FB601FE01448FFF7BDFDF8606B
S11310301AE0FFF779FCF86016E0FFF74FFCF86060
S113104012E00020FFF790FCF8600DE0FFF7F6F8DF
S113105004467868FFF760FE0346B4FBF3F3FB60D5
S113106002E00023FB6000BFFB6818461437BD464E
S113107090BD00BF00400E4002001E000500240089
S11310800300200080B584B000AF78607B681B0942
S113109003F00F03BB60BB68013B092B00F2AA807D
S11310A001A252F823F000BFD1100000E1100000AB
S11310B0F110000011110000F5110000F5110000FD
S11310C0211100003111000081110000D71100002E
S11310D04C4BD3F800311B0A03F01F03FB608CE078
S11310E0484BD3F814311B0A03F01F03FB6084E060
S11310F0444BD3F800311B0E03F00103FB60FB6883
S113110001331846FFF742FB0346013BFB6074E0E2
S11311103C4BD3F80C311B0AC3F30803FB606CE0AF
S1131120384BD3F808311B0AC3F30803FB6064E0AF
S11311307B68354A934204D07B68344A93420DD08D
S11311401AE0304BD3F8203103F00F03FB60F8684A
S1131150FFF71CFB0346013BFB6010E0294BD3F86F
S113116020311B0903F00303FB60F868FFF70EFB53
S11311700346013BFB6002E00023FB6000BF3CE050
S11311807B68234A934204D07B68224A93420ED060
S11311901DE01C4BD3F828311B0903F00303FB604B
S11311A0F868FFF7F3FA0346013BFB6012E0154BC6
S11311B0D3F828311B0A03F00303FB60FB680433F4
S11311C01846FFF7E3FA0346013BFB6002E0002305
S11311D0FB6000BF11E07B680F4A934206D1094BC4
S11311E0D3F8303103F00303FB6002E00023FB601B
S11311F000BF02E00023FB6000BFFB681846103705
S1131200BD4680BD00400E408006160080162E00AC
S113121090171A0090273000A009140080B485B0FC
S113122000AF78600123FB737B6803F00F03BB609E
S1131230BB68013B072B00F2E58001A252F823F0C2
S113124061120000B7120000011300000514000031
S1131250531300009D13000005140000C113000087
S11312606D4BD3F8943003F00703023B052B1ED8D3
S113127001A252F823F000BF9D1200009712000053
S113128091120000A3120000AF120000A912000086
S11312900223FB730EE00323FB730BE00423FB73B5
S11312A008E00B23FB7305E00C23FB7302E005232A
S11312B0FB7300BFA9E0584BD3F8803003F0070359
S11312C0013B042B18D801A252F823F0E1120000CC
S11312D0E7120000F9120000ED120000F312000002
S11312E00323FB730BE00223FB7308E00A23FB7365
S11312F005E00D23FB7302E00123FB7300BF84E0D0
S1131300454BD3F8843003F00703013B042B1CD86E
S113131001A252F823F000BF2D1300003313000084
S11313203F13000039130000451300000323FB732F
S11313300EE00223FB730BE00A23FB7308E0062391
S1131340FB7305E00D23FB7302E00123FB7300BF75
S11313505BE0314BD3F8883003F00703013B042BE7
S113136018D801A252F823F07D1300008313000063
S113137095130000891300008F1300000323FB73EF
S11313800BE00223FB7308E00A23FB7305E00D2343
S1131390FB7302E00123FB7300BF36E01E4B1B6F9F
S11313A003F00103002B04D0012B05D10923FB73A7
S11313B005E00723FB7302E00123FB7300BF24E075
S11313C0154BD3F85C3103F03003302B13D0302BA2
S11313D014D8202B0CD0202B10D8002B02D0102B8B
S11313E003D00BE00123FB730BE00723FB7308E03E
S11313F00423FB7305E00823FB7302E00123FB7362
S113140000BF02E00023FB7300BFFB7B18461437C8
S1131410BD465DF8047B704700400E4080B58AB03D
S113142000AF78600B46FB7003237B62032387F8CD
S113143023300023BB6100237B617B68112B19D10E
S1131440FB78042B03D1FEF73DFF78610BE0FB78BA
S1131450052B08D100F066F90346AB4A934202D942
S113146000F060F978617B69002B03D00021786972
S113147000F002FC7B6803F00F033B613B69013B16
S1131480072B00F2378101A252F823F0AD140000BB
S11314909F150000B1150000F5160000A31500000B
S11314A065160000F516000083160000FB78023B69
S11314B00A2B00F2218101A252F823F0E914000062
S11314C0F51400000115000013150000F9160000C2
S11314D0F9160000F9160000F9160000F9160000CC
S11314E0251500003115000004237B62002387F8D2
S11314F0233023E003237B62012387F823301DE09C
S113150002237B62022387F823308048FFF7B4F973
S113151014E001237B62032387F823307B48FFF721
S1131520ABF90BE005237B62032387F8233005E046
S113153007237B62062387F8233000BF97F8233004
S1131540062B06D097F8233001220121184600F01B
S1131550F5F8FFF78FFAFFF7D1FB7B69002B01D079
S1131560FFF764F96A4A7B6A5367FEF73DFEF86049
S1131570FEF764FE03461846FFF77EF9FFF76EF99F
S113158003461946F868FFF7AFFA7B69002B03D1CD
S11315900121002000F070FBFFF7B7FBB1E05D4BC9
S11315A0BB61BB69002B01D0BB6900E05A4BBB6136
S11315B0BB69002B01D0BB6900E0584BBB61FB78D1
S11315C0013B0C2B00F29A8001A252F823F000BFD9
S11315D0051600000B1600001B160000FD16000087
S11315E0FD1600002B160000FD160000FD1600007D
S11315F0FD16000047160000FD160000FD16000051
S11316004D1600000023FB6128E001220121002087
S113161000F094F80223FB6120E001220121012063
S113162000F08CF80123FB6118E0FEF707FE034687
S11316301846FFF721F9012202213948FFF7B4F8CF
S11316400323FB610AE00423FB6107E0012201217B
S1131650072000F073F80523FB6100BFBB69FA693A
S11316601A604EE0FB78072B02D0092B04D048E027
S1131670274B00221A6703E0254B01221A6700BF9B
S11316803FE0FB78013B072B3AD801A252F823F044
S1131690B11600000117000001170000C716000072
S11316A00117000001170000B7160000D71600004C
S11316B00023FB6112E001220121042000F03EF826
S11316C00123FB610AE001220121022000F036F827
S11316D00223FB6102E00323FB6100BF0C4BD3F840
S11316E05C3123F03002FB691B0109491343C1F843
S11316F05C3106E000BF04E000BF02E000BF00E090
S113170000BF2837BD4680BD002D31010148E801E6
S113171000400E4080400E4088400E4084400E4001
S1131720B0400E4080B400AF034B1B681846BD4662
S11317305DF8047B704700BF0C00002080B588B0C2
S113174000AF0346FB710B46BB7113467B71FB79FB
S1131750072B00F2D28001A252F823F0C517000033
S1131760B31700008F1700007D170000A1170000B9
S1131770FB180000FB180000DB17000001237B614D
S113178002233B610123FB610023BB6139E0042395
S11317907B6108233B610323FB610223BB6130E0CF
S11317A010237B6120233B610523FB610423BB6180
S11317B027E040237B6180233B610723FB610623F1
S11317C0BB611EE04FF480737B614FF400733B6197
S11317D00923FB610823BB6113E0FFF76DF903469E
S11317E083F00103DBB2002B00D0FEE74FF480430B
S11317F07B614FF400433B610F23FB610E23BB610C
S113180000BFBB79002B5BD00023FB73FB79022B59
S113181011D1FFF7A5F90346002B0CD1394BDB6B33
S11318200123FB73384B5B6A03F00103012B02D1E4
S11318300120FFF7A3F9344A7B69136600BFB96935
S11318403248FEF7CAFF0346002BF8D07B79002B01
S113185054D000BFF9692D48FEF7BFFF0346002BA3
S1131860F8D0FB79022B49D1FB7B002B46D0264BC9
S11318705B6A03F00103012B05D101222021022020
S113188000F04CF903E00021022000F0FBF80220F4
S113189000F03EF8B860012200210220FFF74EFF5D
S11318A0B968022000F06EF8174A7B69136600BF1E
S11318B0F9691648FEF791FF0346002BF8D01DE0A6
S11318C0114A3B69136600BF0F4BD3F890300121D6
S11318D0BA6901FA02F21340002BF5D17B79002B8F
S11318E00CD000BF084BD3F890300121FA6901FAFB
S11318F002F21340002BF5D100E000BF2037BD46B3
S113190080BD00BF00300E4000400E4090400E40AD
S113191080B485B000AF0346FB71FB79013B032B18
S113192023D801A252F823F0391900005D190000F0
S11319304519000051190000114B1B6AC3F3080339
S1131940FB6015E00E4B1B6903F07F03FB600FE0A7
S11319500B4B9B6903F07F03FB6009E0084BD3F852
S11319609C30C3F30A03FB6002E00023FB6000BF6A
S1131970FB6818461437BD465DF8047B704700BF0A
S113198000400E4080B584B000AF03463960FB715F
S1131990FB79013B032B6AD801A252F823F000BF64
S11319A0B1190000331A0000DF190000091A000001
S11319B03B68C3F308033B6000BF1A212E48FEF7BF
S11319C00CFF0346002BF8D12C4B1B6A23F4FF7346
S11319D023F0010329493A6813430B6248E03B684A
S11319E003F07F033B6000BF18212348FEF7F5FE98
S11319F00346002BF8D1214B1B6923F07F021F49BA
S1131A003B6813430B6133E03B6803F07F033B60A7
S1131A1000BF19211848FEF7E0FE0346002BF8D159
S1131A20164B9B6923F07F0214493B6813438B6177
S1131A301EE0124BD3F89030104B5B6A23F0300356
S1131A400E4A43F0100353623B68DB0903F00F03B3
S1131A501846FFF769F8F860084B1A6B084B1340F7
S1131A603A681A430549FB6813430B6300E000BF5F
S1131A7000BF1037BD4680BD40410E4000400E40BF
S1131A8000F8FF0F80B584B000AF03460A46FB712F
S1131A901346BB71FFF764F80346002B03D14FF4E0
S1131AA04003FB6017E0BB79302B0DD0302B0FDCEB
S1131AB0002B05D0202B0BD14FF40003FB600AE070
S1131AC04FF44003FB6006E04FF44003FB6002E088
S1131AD0104BFB6000BF00BF0F4BD3F89020FB6896
S1131AE01340FA689A42F7D1FB6803F48003002B91
S1131AF00AD0094BD3F8A03003F48063002B14BF41
S1131B0001230023DBB200E0012318461037BD4651
S1131B1080BD00BFFFF3E17F00400E4080B582B07E
S1131B2000AF0346FB710B46BB7113467B71FB7917
S1131B30022B15D1BB79002B07D00D4B4FF48062DB
S1131B40C3F8A8200A4ABB7953667B79002B09D0D5
S1131B50BA79FB7911461846FFF794FF034603E070
S1131B6000BF00E000BF012318460837BD4680BD12
S1131B7000400E4080B483B000AFEFF310833B60AD
S1131B803B687B6072B600BF7B6818460C37BD4665
S1131B905DF8047B704780B483B000AF78607B68E5
S1131BA0002B01D162B600BF00BF0C37BD465DF803
S1131BB0047B704780B485B000AF786039607B687F
S1131BC003F1424303F58013DA003B6813449B009E
S1131BD0FB60FB681B6818461437BD465DF8047B40
S1131BE07047000080B400AF064B1B6803F040034D
S1131BF0002B01D1012300E000231846BD465DF807
S1131C00047B70473C300E4080B500AFFFF7EAFF1D
S1131C10034683F00103DBB2002B08D100BF12217D
S1131C200448FFF7C7FF0346002BF8D100E000BFCC
S1131C3080BD00BF04300E4080B500AFFFF7E4FF65
S1131C40034B5B681B0C03F00303DBB2184680BD37
S1131C5000300E4080B483B000AF0346FB71FB79C3
S1131C60C3F10203102202FA03F318460C37BD46EF
S1131C705DF8047B7047000080B584B000AF7860E5
S1131C800B46FB70FFF7AEFF034683F00103DBB2A4
S1131C90002B28D17B68002B0FD1154BD3F80031D2
S1131CA01B0A03F01F030133BB60FEF7C7FA0246A9
S1131CB0BB6802FB03F3FB6001E07B68FB600D4B38
S1131CC01B78002B09D0FB680B4A934205D8FB789C
S1131CD01946022000F012F806E0FB7819460020AD
S1131CE000F00CF800E000BF1037BD4680BD00BF17
S1131CF000400E40B8000020002D310190B587B09F
S1131D0000AF03460A46FB711346BB71FFF76AFF37
S1131D10034683F00103DBB2002B31D1FFF78CFFC4
S1131D2003461A46FB7993422CD0184BD3F8003162
S1131D301B0A03F01F0301337B61FEF77FFA38614E
S1131D403B697A6902FB03F3FB60FB79022B03D145
S1131D5002213869FEF7C8FE0D4CFB791846FFF7DF
S1131D6079FF03462361BB79002B01D0FFF74CFFB9
S1131D70FB79002B07D100213869FEF7B5FE02E09C
S1131D8000BF00E000BF1C37BD4690BD00400E40C0
S1131D9000300E4080B485B000AF786039607B6855
S1131DA003F1C063FB60FB683A681A6000BF143734
S1131DB0BD465DF8047B704780B485B000AF7860A1
S1131DC039607B6803F18063FB60FB683A681A60E2
S1131DD000BF1437BD465DF8047B704780B582B000
S1131DE000AF03463960FB71FB79002B0DD0FB7902
S1131DF0012B0AD0FB79022B07D0FB79032B04D0EB
S1131E00FB79042B01D0FB79052BFA7913465B008F
S1131E1013441B010C3303F1804303F520430121D8
S1131E203A6801FA02F211461846FFF7C5FF00BFEF
S1131E300837BD4680BD80B582B000AF0346396027
S1131E40FB71FB79002B0DD0FB79012B0AD0FB79B8
S1131E50022B07D0FB79032B04D0FB79042B01D090
S1131E60FB79052BFA7913465B0013441B010C33F1
S1131E7003F1804303F5204301213A6801FA02F299
S1131E8011461846FFF786FF00BF0837BD4680BDE0
S1131E9080B584B000AFB9607B600346FB73134622
S1131EA0BB73FB7B002B0DD0FB7B012B0AD0FB7B90
S1131EB0022B07D0FB7B032B04D0FB7B042B01D02C
S1131EC0FB7B052BBB7B002B0DD07B68002B05D047
S1131ED0FB7BB9681846FFF7AEFF04E0FB7BB968EB
S1131EE01846FFF77BFFBB68072B20D82B49FA7BEA
S1131EF013465B0013441B010B4404331A68BB688C
S1131F009B000F2101FA03F3DB431340B97BBA684A
S1131F10920001FA02F211462048FA7B1943134653
S1131F205B0013441B0103440433196021E01B4983
S1131F30FA7B13465B0013441B010B4408331A68F5
S1131F40BB68083B9B000F2101FA03F3DB431340FA
S1131F50B97BBA68083A920001FA02F211460F48B6
S1131F60FA7B194313465B0013441B0103440833F3
S1131F701960BB7B002B0DD17B68002B05D0FB7B4C
S1131F80B9681846FFF757FF04E0FB7BB9681846A9
S1131F90FFF724FF00BF1037BD4680BD00A00040FE
S1131FA080B487B000AFF860B9607A60FB6803F171
S1131FB0424303F58013DA00BB6813449B007B6142
S1131FC07B697A681A6000BF1C37BD465DF8047BE4
S1131FD07047000080B483B000AF786039603B681C
S1131FE01B781A463B685B789B001A433B689B78D6
S1131FF09B011A433B68DB781B011A433B681B793E
S1132000DB021A433B685B791B031A433B689B79E9
S11320105B0406491A437B6804331B010B441A60B2
S113202000BF0C37BD465DF8047B704700200440B8
S113203080B582B000AF0346FB71FB791A460021DC
S11320400348FFF7ADFF00BF0837BD4680BD00BFA2
S11320500020044080B483B000AF78607B681B78B4
S1132060002B01D0012200E000227B685B78002B6A
S113207001D0042300E0002313437A689278002AF5
S113208001D0102200E0002213437A68D278002A9B
S113209001D0202200E000221A437B681B791B0236
S11320A01A437B685B791B0313437A689279002A8D
S11320B002D04FF4004200E000221A437B68DB792F
S11320C01B0413437A68127A002A02D04FF40032B8
S11320D000E00022044913430B6000BF0C37BD46E7
S11320E05DF8047B704700BF0020044080B485B0D5
S11320F000AF78601A4B5B69DBB29B00DBB203F084
S11321003C03FB73164B1B699B09DBB203F003030F
S1132110DAB2FB7B1343FB737B68FA7B9A70104B38
S11321201B69DBB203F03F03DAB27B685A700C4BD5
S11321309B691B09DBB21B01FB73094BDB691B09A0
S1132140DBB203F00F03DAB2FB7B1343FB737B6850
S1132150FA7B1A7000BF1437BD465DF8047B7047E4
S1132160D0FF0FE080B483B000AF78600B46FB7003
S1132170FB7863F07F03DBB21A467B689A6500BF85
S11321800C37BD465DF8047B7047000080B586B00F
S113219000AFF860B9607A60FB7000237B61BB68B4
S11321A0002B03D12748FEF72BFEB860FB78602B89
S11321B013D0602B14DC402B0CD0402B10DC002BF4
S11321C002D0202B03D00BE010237B6109E008230D
S11321D07B6106E006237B6103E004237B6100E06E
S11321E000BF7B69002B29D0BB685A017B697968E1
S11321F001FB03F35B0813443B617B697A6802FBD0
S113220003F33A69B2FBF3F33B613B69203B3B6167
S11322103B69DB003B613A690B4B13403B61FB6854
S11322201B6823F06002FB681A60FB681A68FB787D
S11322301A43FB681A60FB683A695A6100BF183791
S1132240BD4680BD40410500F8FF7F0080B485B0E5
S113225000AF78600B46FB707B680F4A934206D050
S11322607B680E4A934202D07B680D4A934200BFBA
S1132270FB78DB43FB60FB6803F00503FB60FB6852
S11322805A007B68DA60FA787B68DA6000BF14373A
S1132290BD465DF8047B7047000001400004014026
S11322A00008014080B582B000AF786039607B6877
S11322B0314A934206D07B68304A934202D07B680D
S11322C02F4A934200BF786800F05CF83B689B7C1F
S11322D0002B05D07B681B6843F080427B681A6042
S11322E03B68DB7C002B05D03B681B7D1946786876
S11322F0FFF738FF3B685B7B1A463B681B8A134336
S11323003A68D2891A437B685A603B6859683B68CB
S11323109A683B681B7B7868FFF738FF3B685B7DF6
S1132320002B05D07B681B6843F480327B681A60FD
S11323303B689B7D1B0703F0E0423B68DB7D1B058C
S113234003F4E0031A437B681A667B685B6F23F02F
S113235030027B685A677B685B6F3A68127E1A4367
S11323607B685A673B681B781A467B68DA6000BF53
S11323700837BD4680BD00BF000001400004014095
S11323800008014080B483B000AF78607B68264ABF
S1132390934206D07B68254A934202D07B68244A44
S11323A0934200BF7B6840F6AA62DA607B68002231
S11323B01A607B6841F205025A607B6800229A60C9
S11323C07B6800225A617B680022DA647B68194AC0
S11323D09A647B6800221A667B6800225A677B68CD
S11323E000229A677B680022DA677B680E4A934270
S11323F007D07B680D4A934203D07B680C4A934212
S113240002D17B6800221A657B6800229A657B688A
S1132410064A934202D17B680022DA6500BF0C377A
S1132420BD465DF8047B7047000001400004014094
S113243000080140F9FF010080B483B000AF786068
S113244000BF7B681B6903F08003002BF9D07B6815
S1132450DB69DBB218460C37BD465DF8047B704778
S113246080B483B000AF78600B46FB7000BF7B681C
S11324701B6903F04003002BF9D0FA787B685A6398
S113248000BF0C37BD465DF8047B704780B483B051
S113249000AF0346FB7197F90730002B0BDBFB7988
S11324A003F01F02074997F907305B09012000FA7E
S11324B002F241F8232000BF0C37BD465DF8047BCF
S11324C0704700BF00E100E080B483B000AF034672
S11324D0FB7197F90730002B0CDBFB7903F01F022B
S11324E0074997F907305B09012000FA02F26033CB
S11324F041F8232000BF0C37BD465DF8047B7047CC
S113250000E100E080B485B000AF786039607B689A
S113251003F1C063FB60FB683A681A6000BF1437BC
S1132520BD465DF8047B704780B582B000AF0346BA
S11325303960FB71FB79002B0DD0FB79012B0AD09C
S1132540FB79022B07D0FB79032B04D0FB79042BF6
S113255001D0FB79052BFA7913465B0013441B0168
S11325600C3303F1804303F5204301213A6801FA57
S113257002F211461846FFF7C5FF00BF0837BD46F3
S113258080BD000080B582B000AF154B01225A64B3
S1132590134B1B68124A43F4807313603B1D1846A7
S11325A0FFF7A4FD7B79012B02D83B79022B0CD9D0
S11325B00C4B4FF418721A600B4B0C4A1A600C4BFC
S11325C00C4A1A600C4B0D4A1A600D4B1B680C4ADE
S11325D043F4F843136000BF0837BD4680BD00BF15
S11325E000000E408C420E4090420E409A6F05004F
S11325F0F0420E4018010004F8420E4000843208F4
S1132600A4310E4080B400AF054B1B69044A23F08B
S11326100403136130BF00BFBD465DF8047B7047FF
S113262000ED00E080B483B000AF78603960064A02
S11326307B681B0113444C333A681A6000BF0C37A3
S1132640BD465DF8047B70470020044080B483B02D
S113265000AF78603960064A7B681B011344483335
S11326603A681A6000BF0C37BD465DF8047B7047BA
S11326700020044080B483B000AF7860044A7B68D3
S1132680536100BF0C37BD465DF8047B704700BF43
S11326900020044080B483B000AF7860044A7B68B3
S11326A0136200BF0C37BD465DF8047B704700BF62
S11326B00020044080B483B000AF7860054B5A6AB0
S11326C004497B6813434B6200BF0C37BD465DF879
S11326D0047B70470020044080B400AF034B9B6927
S11326E01846BD465DF8047B704700BF00200440D7
S11326F080B483B000AF7860044A7B68136100BF84
S11327000C37BD465DF8047B704700BF00200440D1
S113271080B500AFFFF7E0FF0346064A1360054BA0
S11327201B681846FFF7B6FF05210520FFF7FCFEDE
S113273000BF80BDBC00002080B500AF012105486A
S1132740FEF7F8FA0023042205210520FFF7A0FB79
S113275000BF80BD00350A0080B584B000AF78604A
S1132760174800F005FA0023FB6021E015491648DC
S113277000F016FA134B1B68B3F1FF3F0CD0114B5A
S11327801B6830330F4A13600E4B1968FB68023321
S11327907A681344CAB21A700A4B1B68B3F1FF3F3C
S11327A0E4D0084B4FF0FF321A60FB680133FB6042
S11327B0FB68052BF0DD7B6818461037BD4680BDED
S11327C05C490000140000209449000080B584B0E6
S11327D000AF7860174800F0CBF90023FB6021E0DC
S11327E01549164800F0DCF9134B1B68B3F1FF3FA1
S11327F00CD0114B1B6830330F4A13600E4B196811
S1132800FB6802337A681344CAB21A700A4B1B6815
S1132810B3F1FF3FE4D0084B4FF0FF321A60FB687E
S11328200133FB60FB68052BF0DD7B68184610372D
S1132830BD4680BD98490000140000209449000062
S113284080B584B000AF7860174800F091F9002398
S1132850FB6021E01549164800F0A2F9134B1B68F0
S1132860B3F1FF3F0CD0114B1B6830330F4A136098
S11328700E4B1968FB6802337A681344CAB21A70A3
S11328800A4B1B68B3F1FF3FE4D0084B4FF0FF3213
S11328901A60FB680133FB60FB68052BF0DD7B6885
S11328A018461037BD4680BDD049000014000020F2
S11328B09449000080B584B000AF7860174800F0F8
S11328C057F90023FB6021E01549164800F068F928
S11328D0134B1B68B3F1FF3F0CD0114B1B68303313
S11328E00F4A13600E4B1968FB6802337A6813446D
S11328F0CAB21A700A4B1B68B3F1FF3FE4D0084B0D
S11329004FF0FF321A60FB680133FB60FB68052B54
S1132910F0DD7B6818461037BD4680BD104A0000C4
S1132920140000209449000080B58AB000AFF8601C
S1132930B9607A603B602A4A07F11C0307CA03C3E3
S11329401A7000233B770F2387F82030012387F880
S113295023300123FB77234A07F1140392E8030091
S113296018600433198002330A0C1A7001211E48BE
S1132970FEF7E0F902211D48FEF750FD01211C4835
S1132980FEF7D8F907F11C031846FFF763FBBB6891
S11329901846FFF76FFEFB681846FFF7A9FE07F11C
S11329A0140319460120FFF715FB3B681946012063
S11329B0FFF738FE7B6819460120FFF747FE042025
S11329C0FFF778FE1F20FFF77FFD1F20FFF75EFD56
S11329D00120FFF72DFB00BF2837BD4680BD00BF97
S11329E0504A00005C4A000030253E0005002400E7
S11329F0A009140080B594B000AFFFF7C3FDFDF744
S1132A00EDFD0120FDF7D4FDFDF756FE334A07F135
S1132A10240307CA03C31A70314A07F1180307CA0B
S1132A2003C31A702D4A07F10C0307CA03C31A70B3
S1132A302B4A3B4607CA03C31A702A4800F098F889
S1132A4007F118031846FFF7C1FEF86407F12403E1
S1132A501846FFF781FEB8643B461846FFF72AFF85
S1132A60786407F10C031846FFF7EAFE3864F96C42
S1132A701D4800F07DF8B96C1B4800F079F8796CBA
S1132A80194800F075F8396C174800F071F81748C8
S1132A9000F06EF810220021B86C00F0E3F9F8633E
S1132AA010220021F86C00F0DDF9B8631022002137
S1132AB0386C00F0D7F9786310220021786C00F0AC
S1132AC0D1F93863FFF738FE3B6B7A6BB96BF86B5F
S1132AD0FFF72AFFFFF796FDFCE700BFD44A00008A
S1132AE0E04A0000644A0000A84A0000B84A000016
S1132AF008B5074B044613B10021AFF30080054B22
S1132B001868836A03B198472046FDF726FC00BF86
S1132B1000000000EC4A000070B50D4D0D4C641B24
S1132B20A4100026A64209D10B4D0C4C01F0E8FE7E
S1132B30641BA4100026A64205D170BD55F8043BC1
S1132B4098470136EEE755F8043B98470136F2E71B
S1132B507C0000207C0000207C00002080000020FD
S1132B6002440346934200D1704703F8011BF9E77E
S1132B700FB40A4B13B51C6824B1A36913B92046DA
S1132B8000F0ACFA05AB049AA1680193204600F06A
S1132B909FFC02B0BDE8104004B07047180000204C
S1132BA00FB40A4B13B51C6824B1A36913B92046AA
S1132BB000F094FA05AB049A61680193204601F091
S1132BC0EFF802B0BDE8104004B0704718000020D0
S1132BD02DE9F7431D465D4B1F6804460E4690469B
S1132BE027B1BB6913B9384600F078FA584B9C42B8
S1132BF067D17C68B8F1020F06D0B8F1010F00F27A
S1132C009F80002DC0F29C80636EDB0705D4A389EE
S1132C10980502D4A06D00F01CFB2146384600F054
S1132C20B7F9616B41B104F14403994202D03846CB
S1132C3000F07EFB002363630023A3616360A38928
S1132C40190603D52169384600F072FBA38923F4E1
S1132C504A6323F00303B8F1020FA3816CD001ABE4
S1132C606A462146384600F0F6FAA3891843A08143
S1132C70002D30D1009D284600F052FB0646002866
S1132C8055D1DDF80090A9454AD14FF0FF35002217
S1132C90A26004F14702226022610122B4F90C30DF
S1132CA06261626E43F00203D207A38105D413F478
S1132CB0007F02D1A06D00F0CDFA284603B0BDE834
S1132CC0F083244B9C4201D1BC6893E7224B9C4285
S1132CD008BFFC688EE7002ECDD0BB6913B9384617
S1132CE000F0FCF9B8F1010F08BFA389266004BF06
S1132CF043F00103A381A28912F00803C4E9046527
S1132D001CD0D30741BF00236D42A360A56158BF07
S1132D10A560656E15F0010515D112F4007FC8E7B2
S1132D20484600F0FDFA06460028AED04D46A38979
S1132D3043F08003A381D0E70025A8E7A360E8E778
S1132D404FF0FF35B9E70025B7E700BF18000020B2
S1132D50144C0000344C0000F44B0000012B2DE90E
S1132D60F04701D0242B06D900F086F8162303601F
S1132D700020BDE8F087DFF8E4C00D462E4615F8C4
S1132D80014B14F80C7017F00807F7D12D2C32D131
S1132D902C780127B51C002B5BD0102B09D1302CCB
S1132DA007D12C7804F0DF04582C4DD16C78102313
S1132DB0023507F1004808F1FF384FF0000CB8FB6A
S1132DC0F3F9664603FB198AA4F1300EBEF1090F2C
S1132DD016D87446A34224DDBCF1000F1EDBB145B6
S1132DE01CD301D1A24519DB06FB03464FF0010CAD
S1132DF015F8014BE8E72B2C04BF2C78B51CCAE767
S1132E00A4F1410EBEF1190F01D8373CE2E7A4F159
S1132E10610EBEF1190F04D8573CDBE74FF0FF3CBD
S1132E20E6E7BCF1000F05DA22230360464642B907
S1132E3030469EE707B17642002AF9D0BCF1000F74
S1132E4000D0691E1160F3E73024002BB1D10823B0
S1132E50AFE7302CA5D00A23ABE700BFF14A00004E
S1132E60FFF77CBF13460A46014602480068FFF795
S1132E7075BF00BF18000020014B1868704700BFE1
S1132E80180000208A892DE9F041054610070C46F8
S1132E9058D44B68002B05DC0B6C002B02DC0020A3
S1132EA0BDE8F081E66A002EF9D0002312F48052C6
S1132EB02F682B6032D0606DA3895A0705D56368EB
S1132EC0C01A636B0BB1236CC01A00230246E66A76
S1132ED0216A2846B047431CA38906D129681D29C5
S1132EE02CD82A4ACA40D60728D500226260D904C1
S1132EF02269226004D5421C01D12B6803B96065A4
S1132F00616B2F600029CAD004F14403994202D0B6
S1132F10284600F00DFA00206063C1E7216A01230E
S1132F202846B047411CC7D12B68002BC4D01D2BA9
S1132F3001D0162B01D12F60B1E7A38943F04003E0
S1132F40A381ADE70F69002FA9D093070E6808BFCE
S1132F504B690F6018BF0023A6EB07088B60B8F11C
S1132F60000F9CDD216AA66A43463A462846B047CC
S1132F70002806DCA38943F04003A3814FF0FF300F
S1132F808EE70744A8EB0008E9E700BF01004020F2
S1132F9038B50B6905460C4613B90025284638BDDB
S1132FA018B183690BB900F099F8144B9C421BD1FA
S1132FB06C68B4F90C30002BEFD0626ED00704D4E7
S1132FC0990502D4A06D00F044F928462146FFF784
S1132FD059FF636EDA070546E0D4A3899B05DDD467
S1132FE0A06D00F037F9D9E7054B9C4201D1AC68DC
S1132FF0DFE7044B9C4208BFEC68DAE7144C00009E
S1133000344C0000F44B0000014620B9044B054940
S1133010186800F0FEB8044B1868FFF7B9BF00BF8A
S1133020EC4A0000912F000018000020002310B586
S11330300446C0E90033C0E90433836081814366F8
S1133040C2818361194608225C30FFF789FD054B74
S11330506362054BA362054BE362054B2462236361
S113306010BD00BF45420000674200009F420000BF
S1133070C3420000014900F0CCB800BF912F00000A
S113308070B568224D1E55430E4605F1740100F0DB
S11330909BF9044640B10021C0E900160C30A06041
S11330A005F16802FFF75CFD204670BD014800F0A1
S11330B0D0B800BFC1000020014800F0CBB800BF69
S11330C0C1000020014800F0C4B800BFC2000020C5
S11330D0014800F0BFB800BFC200002010B504468C
S11330E0FFF7F0FFA3691BB1BDE81040FFF7F0BF85
S11330F0C4E912332365134B134A1B68A262A3422B
S113310004BF0123A361204600F020F8606020463C
S113311000F01CF8A060204600F018F80022E060DF
S113312004216068FFF782FFA06801220921FFF7EC
S11331307DFFE06802221221FFF778FF0123A361DB
S1133140D2E700BFEC4A000075300000F8B507462E
S1133150FFF7ACFF1E4B1E68B36913B93046FFF787
S1133160BDFF4836D6E90134013B03D533680BB3C0
S11331703668F7E7B4F90C50D5B9164BE36004F19F
S11331805800656600F064F8FFF796FFC4E901553E
S1133190C4E904552560A5610822294604F15C00B0
S11331A0FFF7DEFCC4E90D55C4E912552046F8BD0D
S11331B06834D9E704213846FFF762FF04463060DB
S11331C00028D5D1FFF778FF0C233B60EEE700BF62
S11331D0EC4A00000100FFFF2DE9F0410F4600F129
S11331E048040026D4E90185B8F1010805D524680E
S11331F0002CF7D13046BDE8F081AB89012B06D90C
S1133200B5F90E30013302D02846B8470643683575
S1133210EAE72DE9F8430646884600F1480400270A
S1133220D4E90195B9F1010905D52468002CF7D139
S11332303846BDE8F883AB89012B07D9B5F90E30C0
S1133240013303D029463046C04707436835E9E7D0
S113325070477047704770B50E46B1F90E100029DB
S113326096B014461D4608DAB6F90C3000222A60DE
S11332701A0610D44FF480630EE06A4601F04EFA49
S11332800028F1DB019A02F47042A2F500535A427D
S11332905A412A60EEE740230020236016B070BD37
S11332A08B8973B59D0706460C4607D504F1470381
S11332B0236023610123636102B070BD01AB6A46E0
S11332C0FFF7C9FF00990546304600F07DF848B97C
S11332D0B4F90C309A05EFD423F0030343F002034E
S11332E0A381E3E70D4BB362A389206043F080031D
S11332F0A381009B6361019B20615BB1B4F90E1053
S1133300304601F01DFA28B1A38923F0030343F0EA
S11333100103A381A0890543A581CDE77530000091
S1133320024B0146186800F04FB800BF1800002097
S113333037B5002944D051F8043C0190002BA1F189
S11333400404B8BFE41801F081FA1E4A0198136816
S113335033B96360146003B0BDE8304001F07CBA57
S1133360A34208D9256861198B4201BF19685B68BB
S113337049192160EDE71A465B680BB1A342FAD9FB
S113338011685518A5420BD1246821445418A3424E
S11333901160E0D11C685B68536021441160DAE776
S11333A002D90C230360D6E7256861198B4204BF58
S11333B019685B68636004BF491921605460CAE7F7
S11333C003B030BDC4000020F8B5CD1C25F00305C2
S11333D008350C2D38BF0C25002D064601DBA9420B
S11333E003D90C2333600020F8BD01F02FFA2149E2
S11333F00A6814469CB9204F3B6823B921463046DD
S113340000F0D8FE38602946304600F0D3FE431C55
S113341023D10C233360304601F01EFAE3E723681E
S11334205B1B17D40B2B03D923601C44256004E0D9
S11334306368A2420CBF0B605360304601F00CFA83
S113344004F10B00231D20F00700C21ACCD01B1A74
S1133450A350C9E722466468CCE7C41C24F00304E3
S1133460A042E3D0211A304600F0A4FE0130DDD1A1
S1133470CFE700BFC4000020C80000209368013BD0
S1133480002B10B4936008DA9469A34201DB0A2983
S113349003D15DF8044B01F05FB81368581C106049
S11334A0197008465DF8044B7047F8B506460F4698
S11334B01446D518AC4201D1002007E014F8011BD2
S11334C03A463046FFF7DAFF431CF3D1F8BD00005B
S11334D02DE9F04F0D469DB014469846064618B1A6
S11334E083690BB9FFF7FAFD894B9D421BD17568BF
S11334F06B6ED90705D4AB899A0502D4A86DFFF782
S1133500A8FEAB891B0701D52B69EBB929463046C8
S113351001F086F8C0B16B6EDC070ED54FF0FF30BA
S11335201DB0BDE8F08F7B4B9D4201D1B568DFE74C
S1133530794B9D4208BFF568DAE7AB899805EDD46D
S1133540A86DFFF787FEE9E70023099320238DF890
S11335502930CDF80C803023DFF8C0818DF82A3073
S11335604FF0010923469A4613F8012B0AB1252A84
S1133570F9D1BAEB040B0BD05B4622462946304600
S1133580FFF793FF013000F0AA80099A5A44099288
S11335909AF80030002B00F0A28000234FF0FF3295
S11335A0CDE905230AF1010A049307938DF85330FA
S11335B01A935446052214F8011B584801F0E8F800
S11335C0049AD8B9D10644BF20238DF85330130789
S11335D044BF2B238DF853309AF800302A2B15D092
S11335E0079A544600204FF00A0C214611F8013B7B
S11335F0303B092B4ED9B0B1079214E0A0EB08037D
S113360009FA03F313430493A246D2E7039B191D5B
S11336101B680391002BBBBF5B4242F0020207937D
S11336200793B8BF049223782E2B0CD163782A2BEE
S113363035D1039B1A1D1B680392002BB8BF4FF0B2
S1133640FF3302340593DFF8E4A0217803225046C7
S113365001F09EF840B14023A0EB0A0003FA00F009
S1133660049B03430134049314F8011B2C488DF884
S11336702810062201F08CF800283FD0294B1BBBF0
S1133680039B073323F0070308330393099B3B444D
S1133690099367E70CFB02320C460120A5E70023DF
S11336A00134059319464FF00A0C204610F8012BFB
S11336B0303A092A03D9002BC5D00591C3E70CFB86
S11336C0012104460123F0E703AB00932A46164B7D
S11336D004A93046AFF300800746781CD6D16B6E40
S11336E0D90705D4AB899A0502D4A86DFFF7B2FDBA
S11336F0AB895B063FF512AF099811E703AB009362
S11337002A46094B04A9304600F080F8E4E700BFDC
S1133710144C0000344C0000F44B0000544C0000E6
S11337205E4C000000000000AB3400005A4C000066
S11337302DE9F047164699468A680B69DDF8208022
S11337409342B8BF1346336091F8432007460C46B2
S11337500AB1013333602368990642BF33680233E8
S11337603360256815F0060506D104F1190AE368EB
S113377032689B1AAB4226DC94F84320131E22685D
S113378018BF012392062BD404F14302494638465C
S1133790C04701301ED02368E568326803F0060391
S11337A0042B08BFAD1AA36822690CBF25EAE5758E
S11337B000259342C4BF9B1AED1800261A34B54263
S11337C01AD1002008E00123524649463846C04732
S11337D0013003D14FF0FF30BDE8F0870135C6E773
S11337E0E1185A1C302081F84300224494F8451013
S11337F082F843100233C7E701232246494638467C
S1133800C0470130E6D00136D9E700002DE9FF4773
S11338100F7E0C9D782F914680460C469A4601F106
S1133820430207D8622F0AD8002F00F0D880582FFF
S113383000F0A38004F1420584F842703AE0A7F155
S11338406303152BF6D801A151F823F0A538000025
S1133850B93800003538000035380000353800002C
S113386035380000B938000035380000353800001C
S11338703538000035380000C5390000E93800004B
S1133880A73900003538000035380000E73900005A
S113389035380000E93800003538000035380000BC
S11338A0AF3900002B681A1D1B682A6004F1420519
S11338B084F842300123A3E020682968060601F158
S11338C004030AD50E682B60002E03DA2D237642FA
S11338D084F843305E480A2319E00E682B6010F028
S11338E0400F18BF36B2EFE72B682068191D296016
S11338F0010601D51E6802E04606FBD51E88544821
S11339006F2F0CBF08230A23002184F84310656835
S1133910A560002DA2BF216821F0040121600EB929
S1133920002D4DD01546B6FBF3F103FB1167C75DBF
S113393005F8017D3746BB420E46F4D9082B0BD15E
S11339402368DE0708D5236961689942DEBF302306
S113395005F8013C05F1FF35521B2261CDF800A0AA
S11339604B4603AA21464046FFF7E2FE01304CD104
S11339704FF0FF3004B0BDE8F087354881F845705A
S11339802968236851F8046B29601D0614D5DF07E4
S113399044BF43F0200323601EB9236823F02003AF
S11339A023601023B0E7236843F0200323607823C7
S11339B0284884F84530E3E7590648BFB6B2E6E73D
S11339C01546BBE72B6826686169181D2860350613
S11339D01B6801D5196002E07006FBD5198000232D
S11339E023611546BAE72B681A1D2A601D686268B0
S11339F00021284600F0CCFE08B1401B60606368DB
S1133A002361002384F84330A8E723692A46494602
S1133A104046D0470130ABD023689B0713D4E068FD
S1133A20039B9842B8BF1846A4E70123324649468F
S1133A304046D04701309BD00135E36803995B1AB7
S1133A40AB42F2DCEBE7002504F11906F5E700BF11
S1133A50654C0000764C00002DE9F0471D464B6E86
S1133A60DF07ADF5227D06460C46924605D48B89C8
S1133A70980502D4886DFFF7ECFB0023CDE94433AD
S1133A80A54BA0930DF10408A44BA54FDFF8949225
S1133A90CDF81881A19300959AF80030002B00F01E
S1133AA07181D95D11F008010AF1010519D063682B
S1133AB0002B0FDD23681A78BA5C110701D4AA46DB
S1133AC0EAE7459A0132459262680133013A62603D
S1133AD02360ECE7A19B2146304698470028E9D0B3
S1133AE0EDE7252B12D09A466368002B40F39580AE
S1133AF022681378534540F045816368013B636055
S1133B00459B0132013322604593D8E741914391AB
S1133B109AF801302A2B02BF102341930AF10205BF
S1133B200A22AA461AF8011BA1F13003092B1ED957
S1133B307C48032200F02CFE40B10123A0EB0900D5
S1133B4003FA00F0419B18434190554615F8013B98
S1133B50782B07D8572B11D8252BC4D058D8002B35
S1133B6000F0C780032347930A2342937CE0439BDE
S1133B7002FB0311303943915546D2E7A3F15802B1
S1133B80202AEFD801A151F822F000BF533C0000D5
S1133B90653B0000653B0000B13C0000653B000054
S1133BA0653B0000653B0000653B0000653B000091
S1133BB0653B0000653B0000C73C00009D3C0000E5
S1133BC0173C0000173C0000173C0000653B000058
S1133BD0A13C0000653B0000653B0000653B000024
S1133BE0653B0000D73C0000A93C00004B3C0000B2
S1133BF0653B0000653B0000D33C0000653B0000D2
S1133C009D3C0000653B0000653B0000533C000008
S1133C10453B022BA6D8052325E0A19B214630462F
S1133C20984700283FF464AF636EDA0740F1A2803E
S1133C304498002866D0A38913F0400F18BF4FF0B2
S1133C40FF300DF5227DBDE8F087419A42F0200255
S1133C504192419A42F40072419210226F2B429297
S1133C6034BF0323042347936368002B4DDD419B3A
S1133C705B0604D423681A78BA5C100754D4479BB3
S1133C80022B63DC6B46224641A9304600F0B0F8B3
S1133C90012877D002287FF412AFC5E70A22DDE7B6
S1133CA0002342930323DEE7082342930423DAE745
S1133CB02946404600F08EFA419B43F0400341936D
S1133CC005460123CFE7419B43F040034193002382
S1133CD0C9E70223C7E74198C3063FF5F0AE009B4E
S1133CE0459A191D00911B68C0074CBF1A801A60C1
S1133CF0E5E6636ED80705D4A389990502D4A06DBF
S1133D00FFF7A8FA4FF0FF309BE7A19B214630460E
S1133D1098470028ABD087E729440000A140000061
S1133D20F14A00005A4C0000459A013245926268FB
S1133D30013A002A626002DD013323609AE7A19B05
S1133D40214630469847002894D06DE7042B06DCC2
S1133D506B46224641A9304600F0A4F898E70F4B81
S1133D60002B3FF4ACAE6B46224641A93046AFF37C
S1133D7000808DE7A38999053FF55AAFA06DFFF741
S1133D8069FA55E7636EDA0705D4A3899B0502D463
S1133D90A06DFFF75FFA449853E700BF00000000EE
S1133DA037B50C46054638B1816929B9CDE90023F8
S1133DB0FFF794F9DDE900230A498C4207D16C68C6
S1133DC02146284603B0BDE83040FFF745BE06490A
S1133DD08C4201D1AC68F3E704498C4208BFEC681B
S1133DE0EEE700BF144C0000344C0000F44B00001C
S1133DF02DE9F84315468A6880460C4632B98A692B
S1133E00002A0CBF01224FF0FF328A602268DFF8DB
S1133E109090D1065FBF1A68111D196016680027BB
S1133E20A06988B1012807D12A6811786269525CB7
S1133E3052B9002F31D022E0022820D12B681B7800
S1133E4013F809301B071AD42368DA065EBF2B68FF
S1133E501B7806F8013B2A686B6801322A60A26865
S1133E60013B013A6B600137A26042B1002BD7DC01
S1133E70D4F880312946404698470028D0D023689A
S1133E8013F0100305D1E2680132E260A26902B1C5
S1133E90337023693B4423610020BDE8F88300BFED
S1133EA0F14A00002DE9F04F9846744B0C468246C7
S1133EB0164693E8070087B003AB83E80700704B0E
S1133EC0A169704A032918BF1A46A36801925A1EB1
S1133ED0B2F5AE7F88BF6FF4AE75274682BF03EBA1
S1133EE0050940F25D13A36057F81C3B43F450638B
S1133EF098BF4FF0000923603D464FF0000B316836
S1133F0003AB097853F82B00022200F041FC28B3DC
S1133F10BBF1010F59D162682AB92268082342F41F
S1133F20007263602260226822F4A0622260A268A8
S1133F30511EA16092B13268511C3160127805F8AB
S1133F40012B7268013A002A726007DCD4F88021E0
S1133F50314650469047002840F085800BF1010B14
S1133F60BBF1030FCBD163680BB90A2363606368A9
S1133F7045496069C91A00F02DF94FF0000BA36898
S1133F802268002B3DD03168606991F800C010F8B8
S1133F900C00002835D0BCF1300F24D1100522D5F7
S1133FA00BF1010BB9F1000F03D0013309F1FF3913
S1133FB0A3607368013B002B73601BDD336801331E
S1133FC03360A368013BA360D9E7BBF1020FAED114
S1133FD0226802F4C061B1F5007FBFD11023636091
S1133FE042F48072A2E722F4106222600B7805F892
S1133FF0013BDEE7D4F8803131465046984700282B
S1134000DFD02368D9050DD5BD4209D915F8011CA7
S1134010D4F87C3132465046984705F1FF394D4675
S1134020BD4228D0226812F0100213D12A706368AE
S1134030019E39465046B047D8F8003021681A1D11
S1134040C8F8002011F0200F1B680FD01860E36837
S11340500133E360ED1BAB4425695D442561002019
S113406007B0BDE8F08F4FF0000BCAE7CA074CBF9A
S113407018801860EBE70120F2E700BFA44C0000B1
S1134080B1430000612E0000A04C0000838903F0BE
S11340900903092B01D1FEF7B7BF002070470000C8
S11340A0F8B50C46054618B183690BB9FFF716F845
S11340B03B4B9C420AD16C68B4F90C20002363602A
S11340C0A3899E060CD54FF0FF3066E0354B9C4229
S11340D001D1AC68F0E7344B9C4208BFEC68EBE7D5
S11340E0580748D4D90605D409232B6042F040036D
S11340F0A381E8E71A070BD521462846FEF748FFB7
S11341000028E0D1A389A06023F00803A381A06163
S1134110A38943F00403A38123691BB921462846DC
S1134120FFF7BEF8A689B4F90C70B3070FD00123CA
S1134130A3811E4B1E49186806F00906FFF74CF8C8
S1134140092EA78103D121462846FEF79BFE22694A
S1134150666A6369216A22602846B0470028606065
S11341601CDCB4F90C3017BF002243F0200362605A
S113417043F04003BCE7616B0029CDD004F1440354
S1134180994202D02846FFF7D3F8236C63600020DD
S11341906063002BC0D0E36B2360F8BD0020FCE714
S11341A0144C0000344C0000F44B0000EC4A0000B6
S11341B08D40000038B5064D0023044608462B60A8
S11341C000F090FB431C02D12B6803B1236038BD7F
S11341D0CC00002070B50B7804465E2B0BBF4B78E7
S11341E0481C881C002208BF0122611E04F1FF053F
S11341F001F8012FA942FBD10BB9013870BD82F03F
S11342000102E2540546284610F8011B2D2906D068
S11342105D29F3D009B92846F0E70B46F1E76E783B
S11342205D2EFAD0B342F8DC0235194601318E42D4
S11342306254FBDCF11A0139581CB342A8BF0021B7
S11342404318E0E710B50C46B1F90E1000F030FB4E
S11342500028ABBF636DA3891B1823F48053ACBF44
S11342606365A38110BD2DE9F0411F468B89DB05F1
S113427005460C46164605D5B1F90E100223002258
S113428000F06EFAA389B4F90E1023F48053A381CD
S113429032463B462846BDE8F04100F0AFB910B5C0
S11342A00C46B1F90E1000F05BFA431CA38915BF4C
S11342B0606523F4805343F48053A38118BFA38122
S11342C010BDB1F90E1000F019BA00002DE9F04349
S11342D0364F86460D46284615F8014BE65D16F026
S11342E00806F8D12D2C2FD12C780126851C002B03
S11342F057D0102B09D1302C07D1287800F0DF00DB
S1134300582849D16C78102302354FF0FF38002724
S1134310B8FBF3F803FB08F96FEA09093846A4F17E
S1134320300CBCF1090F14D86446A34222DD002FDF
S11343301DDB80451BD301D1A14518DB00FB0340E5
S1134340012715F8014BEAE72B2C04BF2C78851CB8
S1134350CDE7A4F1410CBCF1190F01D8373CE4E7D7
S1134360A4F1610CBCF1190F04D8573CDDE74FF000
S1134370FF37E6E7002F07DA2223CEF800304FF0AC
S1134380FF3032B9BDE8F08306B14042002AF9D0CB
S113439007B1691E1160F5E73024002BB5D108235D
S11343A0B3E7302CA9D00A23AFE700BFF14A0000DD
S11343B0FFF78CBF2DE9F0410C46496B04F144032F
S11343C099421DD14FF48061FEF7FEFF18B94FF0FA
S11343D0FF30BDE8F0814FF48063A36394F8463066
S11343E0606380F8FF3394F8453080F8FE3394F826
S11343F0443080F8FD3300F2FD3020600020E8E70F
S1134400A66B77003A4600F02DFA05460028DED068
S113441000EB060801463246404600F009FAC4E9BA
S11344200D57C4F80080E9E770B514464A1C0646E7
S11344300D4603D14FF0FF35284670BD18B183698E
S11344400BB9FEF74BFE414B9C421DD17468636E61
S1134450DB0705D4A389980502D4A06DFEF7F9FE05
S1134460B4F90C3023F020035907A3819AB22DD458
S1134470D30613D4636EDD07DCD412F4007FD9D1E4
S1134480A06DFEF7E7FED5E7314B9C4201D1B4683D
S1134490DDE7304B9C4208BFF468D8E7100711D51C
S11344A021463046FEF774FD30B1636ED907C1D49E
S11344B0A38913F4007FE2E7A389A06023F0080333
S11344C0A381A061A38943F00403A381636B6268A1
S11344D0EDB2D3B1A36B934205DC21463046FFF71E
S11344E069FF0028E1D123685A1E226003F8015CA9
S11344F0636801336360636EDA079DD4A3899B0507
S11345009AD4A06DFEF7A6FE96E7616E2069236833
S113451001F0010160B198420AD213F8010CA842DB
S113452006D1013B013223606260002984D1E5E7B2
S1134530C4E90F3204F1440363630323A3632346F2
S113454003F8465F236001236360EEE7144C000028
S1134550344C0000F44B0000F8B50E4614460546F2
S113456018B183690BB9FEF7B9FD214B9C422BD1DD
S11345706C68A369A360A3891A072FD523696BB359
S113458023692068C01A6369F6B28342374604DCA3
S113459021462846FEF7FCFC30BBA368013BA36020
S11345A023685A1C22601E7063690130834204D060
S11345B0A389DB0706D50A2E04D121462846FEF737
S11345C0E7FC88B93846F8BD0A4B9C4201D1AC6877
S11345D0CFE7094B9C4208BFEC68CAE7214628464E
S11345E000F01EF80028CBD04FF0FF37EAE700BFF9
S11345F0144C0000344C0000F44B000038B5074D57
S113460004460846114600222A601A46FBF7FDFEBE
S1134610431C02D12B6803B1236038BDCC000020B9
S1134620324B70B51D6806460C4625B1AB6913B90B
S11346302846FEF753FD2E4B9C420FD16C68A3898C
S1134640B4F90C2019072CD4DD0611D409233360E6
S113465042F04003A3814FF0FF303EE0254B9C42E3
S113466001D1AC68EBE7244B9C4208BFEC68E6E759
S1134670580712D5616B41B104F14403994202D049
S11346803046FEF755FE00236363A38923F0240319
S1134690A3810023636023692360A38943F0080393
S11346A0A38123694BB9A38903F42073B3F5007F75
S11346B003D021463046FEF7F3FDA089B4F90C205F
S11346C010F001030AD00023A36063695B42A36175
S11346D0236943B910F08000BAD170BD810758BF77
S11346E06369A360F4E70020F7E700BF1800002027
S11346F0144C0000344C0000F44B000038B5064D57
S11347000023044608462B60FBF71CFE431C02D121
S11347102B6803B1236038BDCC00002038B5074DA9
S113472000230446084611462B60FBF71BFE431C7E
S113473002D12B6803B1236038BD00BFCC00002038
S113474038B5064D0023044608462B60FBF71AFED5
S1134750431C02D12B6803B1236038BDCC00002078
S113476038B5074D04460846114600222A601A4609
S1134770FBF713FE431C02D12B6803B1236038BD41
S1134780CC00002000000000000000000000000039
S113479001F0FF01102A2BDB10F0070F08D010F8EE
S11347A0013B013A8B422DD010F0070F42B3F6D1F2
S11347B0F0B441EA012141EA014122F007047FF00B
S11347C000070023F0E80256083C85EA010586EA62
S11347D0010685FA47F5A3FA87F586FA47F6A5FA9E
S11347E087F68EB9EED1F0BC01F0FF0102F00702AA
S11347F032B110F8013B013A83EA010313B1F8D155
S11348000020704701387047002D06BF3546033835
S1134810073815F0010F07D1013015F4807F02BF6E
S1134820013015F4C03F0130F0BC0138704700BFBF
S11348300A44914200F1FF3300D1704710B511F8DA
S1134840014B03F8014F9142F9D110BD0148FEF725
S113485000BD00BFC00000200148FEF7FBBC00BF44
S1134860C0000020F8B5074614460E4621B9BDE83D
S1134870F8401146FEF7A8BD22B9FEF759FD2546BA
S11348802846F8BD00F026F8A0420FD2214638464B
S1134890FEF79AFD05460028F2D031462246FFF77E
S11348A0C7FF31463846FEF743FDE9E73546E7E7FB
S11348B038B5074D04460846114600222A601A46B8
S11348C0FBF778FD431C02D12B6803B1236038BD8C
S11348D0CC00002051F8043C181F002BBCBF0B581F
S11348E0C0187047044A05491368002B08BF0B46DB
S11348F01844106018467047D0000020D8000020EB
S1134900F8B500BFF8BC08BC9E467047F8B500BFB8
S1134910F8BC08BC9E46704705000000000000007B
S113492000C20100000500000010000000000000AB
S11349300000000040787D0100000000005A62027F
S113494000010000C0CF6A0002000000809FD50073
S113495002010000002D3101020200000A506C65C2
S113496061736520656E7465722074686520637573
S11349707272656E742074696D6520696E20746846
S11349806520666F726D61742068686D6D73733A2B
S11349900A20000025640000506C65617365206581
S11349A06E746572207468652063757272656E74C6
S11349B0206461746520696E2074686520666F7276
S11349C06D61742079796D6D64643A0A2000000089
S11349D00A506C6561736520656E74657220746835
S11349E0652074696D6520666F7220746865206146
S11349F06C61726D20696E2074686520666F726DDB
S1134A0061742068686D6D73733A0A2000000000B9
S1134A100A506C6561736520656E746572207468F4
S1134A2065206461746520666F7220746865206116
S1134A306C61726D20696E2074686520666F726D9A
S1134A4061742079796D6D64643A0A200000000075
S1134A500100000005000000000000000200000347
S1134A600000000054686973206578616D706C659E
S1134A7020776F726B7320746F2073657420746871
S1134A80652074696D6520616E64207468656E20AC
S1134A9061206675747572652077616B6520757029
S1134AA02074696D650A000043757272656E744402
S1134AB06174653A25730A000A54686520616C6163
S1134AC0726D20686173206265656E207365740A77
S1134AD000000000303068686D6D737300000000E2
S1134AE0323079796D6D6464000000001C00002090
S1134AF000202020202020202020282828282820AA
S1134B0020202020202020202020202020202020A1
S1134B102088101010101010101010101010101009
S1134B2010040404040404040404041010101010F9
S1134B3010104141414141410101010101010101C3
S1134B400101010101010101010101011010101015
S1134B501010424242424242020202020202020295
S1134B6002020202020202020202020210101010E9
S1134B702000000000000000000000000000000011
S1134B800000000000000000000000000000000021
S1134B900000000000000000000000000000000011
S1134BA00000000000000000000000000000000001
S1134BB000000000000000000000000000000000F1
S1134BC000000000000000000000000000000000E1
S1134BD000000000000000000000000000000000D1
S1134BE000000000000000000000000000000000C1
S1134BF000000000000000000000000000000000B1
S1134C0000000000000000000000000000000000A0
S1134C100000000000000000000000000000000090
S1134C200000000000000000000000000000000080
S1134C300000000000000000000000000000000070
S1134C400000000000000000000000000000000060
S1134C5000000000232D302B2000686C4C0065669A
S1134C6067454647003031323334353637383941B9
S1134C7042434445460030313233343536373839CF
S1134C80616263646566002B2D0030300078580043
S1134C90412D46612D66383930313233343536375B
S1134CA05D000000874C00008A4C00008D4C000021
S1074CB000000000FC
S10B4CB488B4FF7F0100000039
S1134CBC00F0490200800000C0EA2101C0EA210191
S1134CCCC0EA2101FFFFFFFF1C00002000000000D0
S1134CDC144C0000344C0000F44B000000000000A5
S1134CEC00000000000000000000000000000000B4
S1134CFC00000000000000000000000000000000A4
S1134D0C0000000000000000000000000000000093
S1134D1C0000000000000000000000000000000083
S1134D2C0000000000000000000000002101000051
S1074D3CFD00000072
S90301B942
